{"abi":[{"type":"constructor","inputs":[{"name":"stakingToken_","type":"address","internalType":"address"},{"name":"owner_","type":"address","internalType":"address"},{"name":"stakingPeriod_","type":"uint256","internalType":"uint256"},{"name":"fixedStakingAmount_","type":"uint256","internalType":"uint256"},{"name":"rewardPerPeriod_","type":"uint256","internalType":"uint256"}],"stateMutability":"nonpayable"},{"type":"receive","stateMutability":"payable"},{"type":"function","name":"changeStakingPeriod","inputs":[{"name":"newStakingPeriod_","type":"uint256","internalType":"uint256"}],"outputs":[],"stateMutability":"nonpayable"},{"type":"function","name":"claimRewards","inputs":[],"outputs":[],"stateMutability":"nonpayable"},{"type":"function","name":"depositTokens","inputs":[{"name":"tokenAmountToDeposit_","type":"uint256","internalType":"uint256"}],"outputs":[],"stateMutability":"nonpayable"},{"type":"function","name":"elapsePeriod","inputs":[{"name":"","type":"address","internalType":"address"}],"outputs":[{"name":"","type":"uint256","internalType":"uint256"}],"stateMutability":"view"},{"type":"function","name":"fixedStakingAmount","inputs":[],"outputs":[{"name":"","type":"uint256","internalType":"uint256"}],"stateMutability":"view"},{"type":"function","name":"owner","inputs":[],"outputs":[{"name":"","type":"address","internalType":"address"}],"stateMutability":"view"},{"type":"function","name":"renounceOwnership","inputs":[],"outputs":[],"stateMutability":"nonpayable"},{"type":"function","name":"rewardPerPeriod","inputs":[],"outputs":[{"name":"","type":"uint256","internalType":"uint256"}],"stateMutability":"view"},{"type":"function","name":"stakingPeriod","inputs":[],"outputs":[{"name":"","type":"uint256","internalType":"uint256"}],"stateMutability":"view"},{"type":"function","name":"stakingToken","inputs":[],"outputs":[{"name":"","type":"address","internalType":"address"}],"stateMutability":"view"},{"type":"function","name":"transferOwnership","inputs":[{"name":"newOwner","type":"address","internalType":"address"}],"outputs":[],"stateMutability":"nonpayable"},{"type":"function","name":"userBalance","inputs":[{"name":"","type":"address","internalType":"address"}],"outputs":[{"name":"","type":"uint256","internalType":"uint256"}],"stateMutability":"view"},{"type":"function","name":"withdrawTokens","inputs":[],"outputs":[],"stateMutability":"nonpayable"},{"type":"event","name":"ChangeStakingPeriod","inputs":[{"name":"newStakingPeriod_","type":"uint256","indexed":false,"internalType":"uint256"}],"anonymous":false},{"type":"event","name":"DepositTokens","inputs":[{"name":"userAddress_","type":"address","indexed":false,"internalType":"address"},{"name":"depositAmount_","type":"uint256","indexed":false,"internalType":"uint256"}],"anonymous":false},{"type":"event","name":"EtherSent","inputs":[{"name":"amount_","type":"uint256","indexed":false,"internalType":"uint256"}],"anonymous":false},{"type":"event","name":"OwnershipTransferred","inputs":[{"name":"previousOwner","type":"address","indexed":true,"internalType":"address"},{"name":"newOwner","type":"address","indexed":true,"internalType":"address"}],"anonymous":false},{"type":"event","name":"WithdrawTokens","inputs":[{"name":"userAddress_","type":"address","indexed":false,"internalType":"address"},{"name":"withdrawAmount_","type":"uint256","indexed":false,"internalType":"uint256"}],"anonymous":false},{"type":"error","name":"OwnableInvalidOwner","inputs":[{"name":"owner","type":"address","internalType":"address"}]},{"type":"error","name":"OwnableUnauthorizedAccount","inputs":[{"name":"account","type":"address","internalType":"address"}]},{"type":"error","name":"SafeERC20FailedOperation","inputs":[{"name":"token","type":"address","internalType":"address"}]}],"bytecode":{"object":"0x608060405234801561000f575f5ffd5b506040516113c33803806113c383398181016040528101906100319190610263565b835f73ffffffffffffffffffffffffffffffffffffffff168173ffffffffffffffffffffffffffffffffffffffff16036100a2575f6040517f1e4fbdf700000000000000000000000000000000000000000000000000000000815260040161009991906102e9565b60405180910390fd5b6100b18161011160201b60201c565b508460015f6101000a81548173ffffffffffffffffffffffffffffffffffffffff021916908373ffffffffffffffffffffffffffffffffffffffff1602179055508260028190555081600381905550806004819055505050505050610302565b5f5f5f9054906101000a900473ffffffffffffffffffffffffffffffffffffffff169050815f5f6101000a81548173ffffffffffffffffffffffffffffffffffffffff021916908373ffffffffffffffffffffffffffffffffffffffff1602179055508173ffffffffffffffffffffffffffffffffffffffff168173ffffffffffffffffffffffffffffffffffffffff167f8be0079c531659141344cd1fd0a4f28419497f9722a3daafe3b4186f6b6457e060405160405180910390a35050565b5f5ffd5b5f73ffffffffffffffffffffffffffffffffffffffff82169050919050565b5f6101ff826101d6565b9050919050565b61020f816101f5565b8114610219575f5ffd5b50565b5f8151905061022a81610206565b92915050565b5f819050919050565b61024281610230565b811461024c575f5ffd5b50565b5f8151905061025d81610239565b92915050565b5f5f5f5f5f60a0868803121561027c5761027b6101d2565b5b5f6102898882890161021c565b955050602061029a8882890161021c565b94505060406102ab8882890161024f565b93505060606102bc8882890161024f565b92505060806102cd8882890161024f565b9150509295509295909350565b6102e3816101f5565b82525050565b5f6020820190506102fc5f8301846102da565b92915050565b6110b48061030f5f395ff3fe6080604052600436106100c5575f3560e01c806372f702f31161007e578063c03d5b4711610058578063c03d5b471461026f578063cff4d02a14610299578063dd49756e146102c3578063f2fde38b146102eb5761010b565b806372f702f3146102055780638d8f2adb1461022f5780638da5cb5b146102455761010b565b80630103c92b1461010f5780631ac8e8d01461014b578063372500ab1461017357806338b41a31146101895780634b4dd725146101b3578063715018a6146101ef5761010b565b3661010b576100d2610313565b7f5449e599383f806a32cf95e4ec7eee3f9ef843b3bd12caba0e75c6fa02efe780346040516101019190610c4c565b60405180910390a1005b5f5ffd5b34801561011a575f5ffd5b5061013560048036038101906101309190610cc3565b61039a565b6040516101429190610c4c565b60405180910390f35b348015610156575f5ffd5b50610171600480360381019061016c9190610d18565b6103af565b005b34801561017e575f5ffd5b506101876103f8565b005b348015610194575f5ffd5b5061019d6105fa565b6040516101aa9190610c4c565b60405180910390f35b3480156101be575f5ffd5b506101d960048036038101906101d49190610cc3565b610600565b6040516101e69190610c4c565b60405180910390f35b3480156101fa575f5ffd5b50610203610615565b005b348015610210575f5ffd5b50610219610628565b6040516102269190610d52565b60405180910390f35b34801561023a575f5ffd5b5061024361064d565b005b348015610250575f5ffd5b50610259610758565b6040516102669190610d52565b60405180910390f35b34801561027a575f5ffd5b5061028361077f565b6040516102909190610c4c565b60405180910390f35b3480156102a4575f5ffd5b506102ad610785565b6040516102ba9190610c4c565b60405180910390f35b3480156102ce575f5ffd5b506102e960048036038101906102e49190610d18565b61078b565b005b3480156102f6575f5ffd5b50610311600480360381019061030c9190610cc3565b61096d565b005b61031b6109f1565b73ffffffffffffffffffffffffffffffffffffffff16610339610758565b73ffffffffffffffffffffffffffffffffffffffff16146103985761035c6109f1565b6040517f118cdaa700000000000000000000000000000000000000000000000000000000815260040161038f9190610d52565b60405180910390fd5b565b6005602052805f5260405f205f915090505481565b6103b7610313565b806002819055507f530075300254ab44a4c1eab3aac0a0f14ff61559e06c8edaa03cca2c7ce81bec816040516103ed9190610c4c565b60405180910390a150565b60035460055f3373ffffffffffffffffffffffffffffffffffffffff1673ffffffffffffffffffffffffffffffffffffffff1681526020019081526020015f205414610479576040517f08c379a000000000000000000000000000000000000000000000000000000000815260040161047090610dc5565b60405180910390fd5b5f60065f3373ffffffffffffffffffffffffffffffffffffffff1673ffffffffffffffffffffffffffffffffffffffff1681526020019081526020015f2054426104c39190610e10565b905060025481101561050a576040517f08c379a000000000000000000000000000000000000000000000000000000000815260040161050190610e8d565b60405180910390fd5b4260065f3373ffffffffffffffffffffffffffffffffffffffff1673ffffffffffffffffffffffffffffffffffffffff1681526020019081526020015f20819055505f3373ffffffffffffffffffffffffffffffffffffffff1660045460405161057390610ed8565b5f6040518083038185875af1925050503d805f81146105ad576040519150601f19603f3d011682016040523d82523d5f602084013e6105b2565b606091505b50509050806105f6576040517f08c379a00000000000000000000000000000000000000000000000000000000081526004016105ed90610f36565b60405180910390fd5b5050565b60045481565b6006602052805f5260405f205f915090505481565b61061d610313565b6106265f6109f8565b565b60015f9054906101000a900473ffffffffffffffffffffffffffffffffffffffff1681565b5f60055f3373ffffffffffffffffffffffffffffffffffffffff1673ffffffffffffffffffffffffffffffffffffffff1681526020019081526020015f205490505f60055f3373ffffffffffffffffffffffffffffffffffffffff1673ffffffffffffffffffffffffffffffffffffffff1681526020019081526020015f208190555061071c338260015f9054906101000a900473ffffffffffffffffffffffffffffffffffffffff1673ffffffffffffffffffffffffffffffffffffffff16610ab99092919063ffffffff16565b7f680f2e4f4032ebf1774e8cdbaddcb1b617a5a606411c8ca96257ada338d3833c338260405161074d929190610f54565b60405180910390a150565b5f5f5f9054906101000a900473ffffffffffffffffffffffffffffffffffffffff16905090565b60025481565b60035481565b60035481146107cf576040517f08c379a00000000000000000000000000000000000000000000000000000000081526004016107c690610fc5565b60405180910390fd5b5f60055f3373ffffffffffffffffffffffffffffffffffffffff1673ffffffffffffffffffffffffffffffffffffffff1681526020019081526020015f20541461084e576040517f08c379a00000000000000000000000000000000000000000000000000000000081526004016108459061102d565b60405180910390fd5b61089c33308360015f9054906101000a900473ffffffffffffffffffffffffffffffffffffffff1673ffffffffffffffffffffffffffffffffffffffff16610b0c909392919063ffffffff16565b8060055f3373ffffffffffffffffffffffffffffffffffffffff1673ffffffffffffffffffffffffffffffffffffffff1681526020019081526020015f205f8282546108e8919061104b565b925050819055504260065f3373ffffffffffffffffffffffffffffffffffffffff1673ffffffffffffffffffffffffffffffffffffffff1681526020019081526020015f20819055507fe3a6e26dceff30d982e183d0ce051fb5b791f2108785a9d440d417247cef5b413382604051610962929190610f54565b60405180910390a150565b610975610313565b5f73ffffffffffffffffffffffffffffffffffffffff168173ffffffffffffffffffffffffffffffffffffffff16036109e5575f6040517f1e4fbdf70000000000000000000000000000000000000000000000000000000081526004016109dc9190610d52565b60405180910390fd5b6109ee816109f8565b50565b5f33905090565b5f5f5f9054906101000a900473ffffffffffffffffffffffffffffffffffffffff169050815f5f6101000a81548173ffffffffffffffffffffffffffffffffffffffff021916908373ffffffffffffffffffffffffffffffffffffffff1602179055508173ffffffffffffffffffffffffffffffffffffffff168173ffffffffffffffffffffffffffffffffffffffff167f8be0079c531659141344cd1fd0a4f28419497f9722a3daafe3b4186f6b6457e060405160405180910390a35050565b610ac68383836001610b61565b610b0757826040517f5274afe7000000000000000000000000000000000000000000000000000000008152600401610afe9190610d52565b60405180910390fd5b505050565b610b1a848484846001610bc3565b610b5b57836040517f5274afe7000000000000000000000000000000000000000000000000000000008152600401610b529190610d52565b60405180910390fd5b50505050565b5f5f63a9059cbb60e01b9050604051815f525f1960601c86166004528460245260205f60445f5f8b5af1925060015f51148316610bb5578383151615610ba9573d5f823e3d81fd5b5f873b113d1516831692505b806040525050949350505050565b5f5f6323b872dd60e01b9050604051815f525f1960601c87166004525f1960601c86166024528460445260205f60645f5f8c5af1925060015f51148316610c21578383151615610c15573d5f823e3d81fd5b5f883b113d1516831692505b806040525f606052505095945050505050565b5f819050919050565b610c4681610c34565b82525050565b5f602082019050610c5f5f830184610c3d565b92915050565b5f5ffd5b5f73ffffffffffffffffffffffffffffffffffffffff82169050919050565b5f610c9282610c69565b9050919050565b610ca281610c88565b8114610cac575f5ffd5b50565b5f81359050610cbd81610c99565b92915050565b5f60208284031215610cd857610cd7610c65565b5b5f610ce584828501610caf565b91505092915050565b610cf781610c34565b8114610d01575f5ffd5b50565b5f81359050610d1281610cee565b92915050565b5f60208284031215610d2d57610d2c610c65565b5b5f610d3a84828501610d04565b91505092915050565b610d4c81610c88565b82525050565b5f602082019050610d655f830184610d43565b92915050565b5f82825260208201905092915050565b7f4e6f74207374616b696e670000000000000000000000000000000000000000005f82015250565b5f610daf600b83610d6b565b9150610dba82610d7b565b602082019050919050565b5f6020820190508181035f830152610ddc81610da3565b9050919050565b7f4e487b71000000000000000000000000000000000000000000000000000000005f52601160045260245ffd5b5f610e1a82610c34565b9150610e2583610c34565b9250828203905081811115610e3d57610e3c610de3565b5b92915050565b7f4e65656420746f207761697400000000000000000000000000000000000000005f82015250565b5f610e77600c83610d6b565b9150610e8282610e43565b602082019050919050565b5f6020820190508181035f830152610ea481610e6b565b9050919050565b5f81905092915050565b50565b5f610ec35f83610eab565b9150610ece82610eb5565b5f82019050919050565b5f610ee282610eb8565b9150819050919050565b7f5472616e73666572206661696c656400000000000000000000000000000000005f82015250565b5f610f20600f83610d6b565b9150610f2b82610eec565b602082019050919050565b5f6020820190508181035f830152610f4d81610f14565b9050919050565b5f604082019050610f675f830185610d43565b610f746020830184610c3d565b9392505050565b7f496e636f727265637420416d6f756e74000000000000000000000000000000005f82015250565b5f610faf601083610d6b565b9150610fba82610f7b565b602082019050919050565b5f6020820190508181035f830152610fdc81610fa3565b9050919050565b7f5573657220616c7265616479206465706f7369746564000000000000000000005f82015250565b5f611017601683610d6b565b915061102282610fe3565b602082019050919050565b5f6020820190508181035f8301526110448161100b565b9050919050565b5f61105582610c34565b915061106083610c34565b925082820190508082111561107857611077610de3565b5b9291505056fea2646970667358221220170d52d4f269f1b7aee033547a536d997ddeafd6d0d228f35a96b7a22d0405ae64736f6c63430008230033","linkReferences":{}},"methodIdentifiers":{"changeStakingPeriod(uint256)":"1ac8e8d0","claimRewards()":"372500ab","depositTokens(uint256)":"dd49756e","elapsePeriod(address)":"4b4dd725","fixedStakingAmount()":"cff4d02a","owner()":"8da5cb5b","renounceOwnership()":"715018a6","rewardPerPeriod()":"38b41a31","stakingPeriod()":"c03d5b47","stakingToken()":"72f702f3","transferOwnership(address)":"f2fde38b","userBalance(address)":"0103c92b","withdrawTokens()":"8d8f2adb"},"id":30}